:020000040000FA
:06000000AEEF00F000006D
:0800080052EF00F0960EF66EB7
:10001000010EF76E000EF86E0900F550056E09002E
:10002000F550066E055002E106503BE00900F55020
:10003000006E0900F550016E0900F550026E0900CE
:100040000900F550E96E0900F550EA6E0900090053
:100050000900F550036E0900F550046E090009000F
:10006000F6CF07F0F7CF08F0F8CF09F000C0F6FFA1
:1000700001C0F7FF02C0F8FF035002E1045007E09F
:100080000900F550EE6E0306F8E20406F9D707C042
:10009000F6FF08C0F7FF09C0F8FF0506C4E2060630
:1000A000C5D71200D8CFE5FFE0CFE5FFE56EF3CF6F
:1000B000E5FFF4CFE5FFE9CFE5FFEACFE5FFFACFB3
:1000C000E5FFFBCFE5FFD9CFE5FFE1CFD9FF00C0CA
:1000D000E5FF9EA01AD0006A91B0002A007000507F
:1000E000010BF46E9150FE0BF410916E006A91B208
:1000F000002A00700050010BE844F46E9150FD0B93
:10010000F410916EBAEC00F09E90E4CF00F0E4CFD2
:10011000D9FFE4CFFBFFE4CFFAFFE4CFEAFFE4CF5F
:10012000E9FFE4CFF4FFE4CFF3FFE450E4CFE0FFD6
:10013000E4CFD8FF1000D9CFE5FFE1CFD9FF9A90E7
:100140009A92F28EF28CCD80CD8ECD82CD86CD98D6
:10015000CD9A9E909D80E4CFD9FF120017EEFFF05C
:1001600027EEFFF0F86AA68EA69C06EC00F0C3EC22
:1001700000F0FFD7D9CFE5FFE1CFD9FFCF6ACE6A34
:10018000E4CFD9FF12009BEC00F0BAEC00F09180B4
:100190009192FFD71200010004000000000F000040
:0401A000010000005A
:00000001FF
