:020000040000FA
:1000000033EF0DF0C96E12002EEF07F0D9CFE5FFE8
:10001000E1CFD9FF00C0E5FF01C0E5FF02C0E5FF69
:1000200003C0E5FF04C0E5FF05C0E5FF06C0E5FF2E
:1000300007C0E5FF08C0E5FF09C0E5FF0AC0E5FF0E
:100040000BC0E5FF0CC0E5FF0DC0E5FF0EC0E5FFEE
:100050000FC0E5FF10C0E5FF11C0E5FF12C0E5FFCE
:1000600013C0E5FF14C0E5FF15C0E5FF16C0E5FFAE
:1000700017C0E5FF18C0E5FF19C0E5FF1AC0E5FF8E
:100080001BC0E5FF1CC0E5FF1DC0E5FF1EC0E5FF6E
:10009000020EDBCF00F0030EDBCF01F0040EDBCF4E
:1000A00002F0050EDBCF03F0060EDBCF04F0070EE7
:1000B000DBCF05F0080EDBCF06F0090EDBCF07F033
:1000C0000A0EDBCF08F0096A0A6A02C00DF00D5073
:1000D000800A0DE102500F01566F0150556F00501C
:1000E000546F0F0E016E540E006E800E026E03C030
:1000F000E9FF04C0F3FF055013EC0DF00B6E0B503D
:10010000D8B4C2EF03F00B50250A02E0A9EF03F0C8
:100110000C6A0D6A0E6A0F6A106A0A0E116E126A74
:10012000136A146A200E156E1668176A2B0E186E65
:10013000032A02E3044A052A03C0E9FF04C0F3FFCF
:10014000055013EC0DF0196E250A13E11950E56EF8
:100150000250E56E0150E56E0050E56E2CEC0AF0A1
:10016000040EE126094A0A2A032A02E3044A052A60
:10017000BED71950300A06E1300E156E032A02E38D
:10018000044A052A03C0E9FF04C0F3FF055013EC3D
:100190000DF02D0A06E1010E146E032A02E3044A53
:1001A000052A03C0E9FF04C0F3FF055013EC0DF06E
:1001B000200A08E1010E176E200E186E032A02E3D2
:1001C000044A052A03C0E9FF04C0F3FF055013ECFD
:1001D0000DF02B0A06E1010E176E032A02E3044A12
:1001E000052A03C0E9FF04C0F3FF055013EC0DF02E
:1001F000196E800F4F0F2DE31950800F460F29E223
:1002000003C019F004C01AF005C01BF019C0E9FFC3
:100210001AC0F3FF1B5013EC0DF01C6E800F500F33
:1002200012E31C50800F460F0EE213500A0DF3CF5D
:100230001DF01D501C26D00E1C24136E192A02E33B
:100240001A4A1B2AE3D719C003F01AC004F01BC0D6
:1002500005F003C0E9FF04C0F3FF055013EC0DF0F7
:100260002E0A2EE1032A02E3044A052A166A03C075
:1002700019F004C01AF005C01BF019C0E9FF1AC03C
:10028000F3FF1B5013EC0DF01C6E800F500F12E3A8
:100290001C50800F460F0EE216500A0DF3CF1DF0D2
:1002A0001D501C26D00E1C24166E192A02E31A4A71
:1002B0001B2AE3D719C003F01AC004F01BC005F0D5
:1002C00003C0E9FF04C0F3FF055013EC0DF0196EF5
:1002D0006C0A07E1010E0C6E032A02E3044A052AA8
:1002E00009D01950680A06E1010E0E6E032A02E3D6
:1002F000044A052A03C0E9FF04C0F3FF055013ECCC
:100300000DF0750A06E1010E106E032A02E3044A9D
:10031000052A03C0E9FF04C0F3FF055013EC0DF0FC
:10032000196E730A05E1010E0D6E200E156E3FD099
:100330001950780A03E1100E116E39D01950580A7D
:1003400005E1100E116E010E126E31D01950630AC4
:1003500002E1116A2CD019506F0A03E1080E116EE8
:1003600026D01950660A03E1010E0F6E20D01950F5
:10037000640A1DE01950690A1AE0105005E0FF0EEA
:1003800003260422052213D01950E56E0250E56EB3
:100390000150E56E0050E56E2CEC0AF0040EE126EB
:1003A000094A0A2A032A02E3044A052AA0D60D5064
:1003B00021E00650030F0D6E000E0720196E000E8F
:1003C00008201A6E0DC006F019C007F01AC008F018
:1003D000FD0E0D26FF0E19221A220DC0E9FF19C0CD
:1003E000F3FF1A50CBEC0CF00D6EF3CF19F0F4CFF5
:1003F0001AF000D10F500DE0000E1A6E080E196EA3
:100400000C0E0D6E040E0626000E0722082216683A
:10041000F1D016680C5023E00650040F0C6E000E4D
:1004200007200F6E000E08201B6E0CC006F00FC0D8
:1004300007F01BC008F0FC0E0C26FF0E0F221B223B
:100440000CC0E9FF0FC0F3FF1B508FEC0CF00C6EDB
:10045000F3CF0FF0F4CF1BF0E9CF1CF06AD00E50B1
:1004600032E00650020F0E6E000E07201D6E000EC9
:1004700008201E6E0EC006F01DC007F01EC008F05A
:10048000FE0E0E26FF0E1D221E220EC0E9FF1DC00D
:10049000F3FF1E50FDEC0CF00E6E0EC00CF0E86A7F
:1004A0000EBEFF0E0F6E1B6E1C6E11500A0A03E18A
:1004B0001050D8B43ED00C500E6E0EC00CF00F6A27
:1004C0001B6A1C6A36D00650020F0E6E000E072003
:1004D0001D6E000E08201E6E0EC006F01DC007F037
:1004E0001EC008F0FE0E0E26FF0E1D221E220EC09C
:1004F000E9FF1DC0F3FF1E50FDEC0CF00E6EF3CFB4
:100500001DF00EC00CF01DC00FF0E86A1DBEFF0EFE
:100510001B6E1C6E11500A0A02E110500AE00C50CA
:100520000E6E0F501D6E0EC00CF01DC00FF01B6A3A
:100530001C6A0F0E196E430E0D6E800E1A6E11504E
:10054000D8B440D0105013E01150E56E0F0EE56E98
:10055000430EE56E1C50E56E1B50E56E0F50E56EC8
:100560000C50E56E52EC06F0070EE12612D0115049
:10057000E56E0F0EE56E430EE56E1C50E56E1B50EA
:10058000E56E0F50E56E0C50E56E18EC0BF0070EA3
:10059000E12617502FE00DC0E9FF19C0F3FF1A50F4
:1005A00013EC0DF02D0A26E0FF0E0D2619221A225B
:1005B00018C0E5FF0DC0E9FF19C0F3FF1A503FEC6A
:1005C0000DF018D00CC0E5FF0DC0E9FF19C0F3FF16
:1005D0001A503FEC0DF00D50010F0C6E000E19205B
:1005E0000E6E000E1A20E56A0CC0E9FF0EC0F3FF84
:1005F0003FEC0DF00DC00CF019C00EF01AC00FF05A
:1006000013C010F0105010E00CC0E9FF0EC0F3FF53
:100610000F5013EC0DF0176E175006E00C2A02E392
:100620000E4A0F2A1006EED710C013F014501EE128
:1006300009C00CF00AC00EF010C00FF00F5010E00F
:100640001550E56E0250E56E0150E56E0050E56E06
:100650002CEC0AF0040EE1260C4A0E2A0F06EED707
:100660000CC009F00EC00AF00FC013F016C00CF059
:100670000DC00DF019C00EF01AC00FF009C010F037
:100680000AC015F00DC0E9FF0EC0F3FF0F5013ECC8
:100690000DF0166E1650D8B43ED00CC016F0176A86
:1006A000161E171E1650171005E00CC016F00C068B
:1006B000165031E00DC0E9FF0EC0F3FF0F5013ECF0
:1006C0000DF0116E125010E01150E56EE6EC0CF0DA
:1006D000166EE652165004E01150166E169A02D0AD
:1006E00011C016F016C011F01150E56E0250E56E03
:1006F0000150E56E0050E56E2CEC0AF0040EE12688
:100700000D2A02E30E4A0F2A104A152A1350D8B4B4
:10071000B9D71306B7D710C009F015C00AF01450A6
:100720002BE010C00CF015C00DF013C00EF00E50F1
:100730001FE0200EE56E0250E56E0150E56E0050A0
:10074000E56E2CEC0AF0040EE1260C4A0D2A0E068A
:10075000EED70B50E56E0250E56E0150E56E00508D
:10076000E56E2CEC0AF0040EE126094A0A2A04D0B0
:100770000CC009F00DC00AF0032A02E3044A052A5E
:1007800077EF00F00AC0F3FF0950E4CF1EF0E4CF8A
:100790001DF0E4CF1CF0E4CF1BF0E4CF1AF0E4CF5F
:1007A00019F0E4CF18F0E4CF17F0E4CF16F0E4CF5F
:1007B00015F0E4CF14F0E4CF13F0E4CF12F0E4CF5F
:1007C00011F0E4CF10F0E4CF0FF0E4CF0EF0E4CF5F
:1007D0000DF0E4CF0CF0E4CF0BF0E4CF0AF0E4CF5F
:1007E00009F0E4CF08F0E4CF07F0E4CF06F0E4CF5F
:1007F00005F0E4CF04F0E4CF03F0E4CF02F0E4CF5F
:1008000001F0E4CF00F0E4CFD9FF12003C4E4F20BE
:10081000464C4F41543E0000D9CFE5FFE1CFD9FF10
:1008200000C0E5FF01C0E5FF02C0E5FF03C0E5FF32
:1008300004C0E5FF05C0E5FF06C0E5FF07C0E5FF12
:1008400008C0E5FF020EE56E000EE56E5EEC0CF0F2
:10085000E652E652480E006E0D0E016E026A036A01
:1008600000C004F001C005F002C006F003C007F0AC
:10087000FF0E00260122022203220450051006105A
:100880000710EEE1006A00C001F0026A000E025C8F
:1008900002E1100E015CD8B054D0210E0024016E8C
:1008A000026A0F0E022201C0E9FF02C0EAFFEFCF89
:1008B00001F0015019E100C001F001C002F0036A2B
:1008C000000E035C02E1100E025C0EE2210E012418
:1008D000026E036A0F0E032202C0E9FF03C0EAFFA3
:1008E000200EEF6E012AE9D7210E0024016E026A64
:1008F0000F0E022201C0E9FF02C0EAFFEFCF01F0B4
:100900000150E56E010EE56E5EEC0CF0E652E6522B
:10091000550E016E026A036A046A01C005F002C046
:1009200006F003C007F004C008F0FF0E0126022203
:10093000032204220550061007100810EEE1002AD9
:10094000A2D7C00EE56E000EE56E5EEC0CF0E6522E
:10095000E652550E006E016A026A036A00C004F096
:1009600001C005F002C006F003C007F0FF0E00262C
:100970000122022203220450051006100710EEE1A6
:10098000100E006E00C001F0026A000E025C02E16F
:10099000200E015CD8B054D0210E0024016E026AF2
:1009A0000F0E022201C0E9FF02C0EAFFEFCF01F003
:1009B000015019E100C001F001C002F0036A000E0D
:1009C000035C02E1200E025C0EE2210E0124026EA5
:1009D000036A0F0E032202C0E9FF03C0EAFF200EE4
:1009E000EF6E012AE9D7210E0024016E026A0F0E74
:1009F000022201C0E9FF02C0EAFFEFCF01F001507F
:100A0000E56E010EE56E5EEC0CF0E652E652550E18
:100A1000016E026A036A046A01C005F002C006F0B2
:100A200003C007F004C008F0FF0E012602220322D3
:100A300004220550061007100810EEE1002AA2D784
:100A4000E4CF08F0E4CF07F0E4CF06F0E4CF05F000
:100A5000E4CF04F0E4CF03F0E4CF02F0E4CF01F000
:100A6000E4CF00F0E4CFD9FF1200D9CFE5FFE1CF0A
:100A7000D9FF00C0E5FF01C0E5FF02C0E5FF03C0EC
:100A8000E5FF04C0E5FF05C0E5FF06C0E5FF07C0C0
:100A9000E5FF08C0E5FF210E006E0F0E016E000E8F
:100AA000E56E200EE56E200EE56E0150E56E0050FD
:100AB000E56EB5EC0AF0050EE1260F01416B909052
:100AC0009092966A999299949990A00E006E090E50
:100AD000016E010E026E036A00C004F001C005F051
:100AE00002C006F003C007F0FF0E0026012202221A
:100AF00003220450051006100710EEE19094030E37
:100B00008D6E00000000006A00C001F0026A000E55
:100B1000025C02E1030E015C33E29080110E016E73
:100B2000026A036A046A01C005F002C006F003C04D
:100B300007F004C008F0FF0E01260222032204225F
:100B40000550061007100810EEE19090480E016E57
:100B50000D0E026E036A046A01C005F002C006F0C1
:100B600003C007F004C008F0FF0E01260222032292
:100B700004220550061007100810EEE1002AC4D721
:100B8000380EE56E000EE56E5EEC0CF0E652E652B5
:100B9000550E006E016A026A036A00C004F001C0CB
:100BA00005F002C006F003C007F0FF0E0026012288
:100BB000022203220450051006100710EEE1060E73
:100BC000E56E000EE56E5EEC0CF0E652E652550E58
:100BD000006E016A026A036A00C004F001C005F0F9
:100BE00002C006F003C007F0FF0E00260122022219
:100BF00003220450051006100710EEE10C0EE56EFE
:100C0000000EE56E5EEC0CF0E652E652550E006EFC
:100C1000016A026A036A00C004F001C005F002C064
:100C200006F003C007F0FF0E002601220222032275
:100C30000450051006100710EEE1010EE56E000EDF
:100C4000E56E5EEC0CF0E652E652480E006E0D0EBC
:100C5000016E026A036A00C004F001C005F002C020
:100C600006F003C007F0FF0E002601220222032235
:100C70000450051006100710EEE1E4CF08F0E4CFB1
:100C800007F0E4CF06F0E4CF05F0E4CF04F0E4CFC2
:100C900003F0E4CF02F0E4CF01F0E4CF00F0E4CFC2
:100CA000D9FF1200D9CFE5FFE1CFD9FF00C0E5FFA2
:100CB00001C0E5FF02C0E5FF03C0E5FF04C0E5FF9A
:100CC00005C0E5FF06C0E5FF07C0E5FF08C0E5FF7A
:100CD00009C0E5FF0AC0E5FF0BC0E5FF0CC0E5FF5A
:100CE0000DC0E5FF0EC0E5FF0FC0E5FF020EDBCF34
:100CF00000F0030EDBCF01F0040EDBCF02F0050E97
:100D0000DBCF03F0060EDBCF04F0070EDBCF05F0E0
:100D1000080EDBCF06F0200E076E086A06C009F049
:100D20000A6A0B6A0C6AE56AE56AE56A0950E56ECB
:100D30000350E56E0250E56E0150E56E0050E56E21
:100D4000F4EC07F00D6E080EE126300E0D263A0E7B
:100D50000D5C05E30D500E6E270E0E240D6EFF0E7A
:100D600007260822000E07240E6E0E0E08200F6EB6
:100D70000EC0E9FF0FC0EAFF0DC0EFFF0C50E56E9B
:100D80000B50E56E0A50E56E0950E56E0350E56EB6
:100D90000250E56E0150E56E0050E56E16EC09F06C
:100DA000006EF3CF01F0F4CF02F0E9CF03F0080EAC
:100DB000E1260050011002100310D8A4AFD707C0DD
:100DC00000F008C001F004C002F005C003F000C04C
:100DD00004F001C005F0004A012A000E04260E0EA0
:100DE000052204C0E9FF05C0EAFFEFCF04F002C00E
:100DF000E9FF03C0EAFF04C0EFFF024A032A000E26
:100E0000015C02E1200E005CE2E302C0E9FF03C0E6
:100E1000EAFF000EEF6AE4CF0FF0E4CF0EF0E4CF6C
:100E20000DF0E4CF0CF0E4CF0BF0E4CF0AF0E4CF08
:100E300009F0E4CF08F0E4CF07F0E4CF06F0E4CF08
:100E400005F0E4CF04F0E4CF03F0E4CF02F0E4CF08
:100E500001F0E4CF00F0E4CFD9FF1200D8CFE5FFD6
:100E6000E0CFE5FFE56EF3CFE5FFF4CFE5FFE9CF97
:100E7000E5FFEACFE5FFFACFE5FFFBCFE5FFD9CFEE
:100E8000E5FFE1CFD9FF00C0E5FF01C0E5FF02C0EB
:100E9000E5FF03C0E5FF04C0E5FF05C0E5FF06C0B0
:100EA000E5FF07C0E5FF9EA06DD0006AD5BE002A11
:100EB00000700050010BE840F46ED5507F0BF41029
:100EC000D56E006A91B0002A00700050010BF46EDC
:100ED0009150FE0BF410916ED5BE53D0D60E006E1D
:100EE0000F0E016E00C0E9FF01C0EAFFEECF00F077
:100EF000EFCF01F0000E046E120E036E120E026EA2
:100F00000F0E066E000E056E800E076E0150E56E28
:100F10000050E56E0F015251E56E0F015151E56E23
:100F20000F015051E56E0F014F51E56E0450E56E13
:100F30000350E56E0250E56E0750E56E0650E56E13
:100F40000550E56EA2EC09F00C0EE1260F0E016EC5
:100F5000000E006E800E026E000EE56E0250E56E11
:100F60000150E56E0050E56E87EC08F0040EE126B6
:100F7000D66A0F014F6B0F01506B0F01516B0F01C0
:100F8000526B9E90006AF2B4002A0050010A08E1F8
:100F90000F01502B000E0F0151230F015223F29429
:100FA000E4CF07F0E4CF06F0E4CF05F0E4CF04F09F
:100FB000E4CF03F0E4CF02F0E4CF01F0E4CF00F09F
:100FC000E4CFD9FFE4CFFBFFE4CFFAFFE4CFEAFFA1
:100FD000E4CFE9FFE4CFF4FFE4CFF3FFE450E4CF44
:100FE000E0FFE4CFD8FF1000D9CFE5FFE1CFD9FF74
:100FF00000C0E5FF01C0E5FF02C0E5FF03C0E5FF5B
:1010000004C0E5FF05C0E5FF06C0E5FF07C0E5FF3A
:1010100008C0E5FF09C0E5FF0AC0E5FF020EDBCF0F
:1010200000F0030EDBCF01F0040EDBCF02F0050E63
:10103000DBCF03F0060EDBCF04F0070EDBCF05F0AD
:10104000080EDBCF06F0090EDBCF07F0086A096A4D
:101050000750800BE8440A6E0A501BE10450042636
:101060000536063607360750035C08E10650025C79
:1010700005E10550015C02E10450005C06E2D890F5
:10108000073206320532043204D0092A09C008F0BA
:10109000DFD70750035C08E10650025C05E105500C
:1010A000015C02E10450005C08E30450005E05505E
:1010B000015A0650025A0750035AD8900732063296
:1010C0000532043208C009F008060950E2E103C005
:1010D000E9FF02C0F4FF01C0F3FF0050E4CF0AF0C3
:1010E000E4CF09F0E4CF08F0E4CF07F0E4CF06F056
:1010F000E4CF05F0E4CF04F0E4CF03F0E4CF02F056
:10110000E4CF01F0E4CF00F0E4CFD9FF1200D9CF53
:10111000E5FFE1CFD9FF00C0E5FF01C0E5FF02C058
:10112000E5FF03C0E5FF04C0E5FF05C0E5FF06C01D
:10113000E5FF07C0E5FF08C0E5FF09C0E5FF020EB7
:10114000DBCF00F0030EDBCF01F0040EDBCF02F0AB
:10115000050EDBCF03F00250E56E0150E56E005046
:10116000E56E20EC0CF0046EF3CF05F0030EE126E3
:1011700003502008056E066A210E03260F0E062274
:101180000650066E0350036E800E076E0550045C19
:1011900002E305C004F0056A04C008F005C009F0C8
:1011A000FF0E04260522085009101AE000C0E9FFCE
:1011B00001C0F3FF025013EC0DF0086E002A02E3A9
:1011C000014A022A08C0E5FF03C0E9FF06C0F3FF99
:1011D00007503FEC0DF0032A02E3064A072ADCD74A
:1011E0000CEC04F0E4CF09F0E4CF08F0E4CF07F012
:1011F000E4CF06F0E4CF05F0E4CF04F0E4CF03F051
:10120000E4CF02F0E4CF01F0E4CF00F0E4CFD9FF67
:101210001200456C6170736564207469636B733A86
:101220002020256C75202B2025687500D9CFE5FF7F
:10123000E1CFD9FF00C0E5FF01C0E5FF02C0E5FF37
:1012400003C0E5FF04C0E5FF05C0E5FF06C0E5FFFC
:1012500007C0E5FF08C0E5FF09C0E5FF0AC0E5FFDC
:101260000BC0E5FF0CC0E5FF0DC0E5FF020EDBCFB4
:1012700000F0030EDBCF01F0040EDBCF02F0050E11
:10128000DBCF03F0060EDBCF04F0070EDBCF05F05B
:10129000080EDBCF06F0090EDBCF07F0086A096AFB
:1012A0000A6A0B6A200E0C6E0350800BE8440D6E28
:1012B000005000260136023603360850082609364B
:1012C0000A360B360D50D8A4088007500B5C08E195
:1012D00006500A5C05E10550095C02E10450085C17
:1012E00009E30450085E0550095A06500A5A07508F
:1012F0000B5A00800C2ED8D703C0E9FF02C0F4FFC0
:1013000001C0F3FF0050E4CF0DF0E4CF0CF0E4CFC8
:101310000BF0E4CF0AF0E4CF09F0E4CF08F0E4CF1B
:1013200007F0E4CF06F0E4CF05F0E4CF04F0E4CF1B
:1013300003F0E4CF02F0E4CF01F0E4CF00F0E4CF1B
:10134000D9FF1200D9CFE5FFE1CFD9FF00C0E5FFFB
:1013500001C0E5FF02C0E5FF03C0E5FF04C0E5FFF3
:1013600005C0E5FF050ED924006E000EDA20016EDF
:10137000800E026E030E0026000E0122022206C01D
:10138000E5FF07C0E5FF08C0E5FF020EDBCF06F072
:10139000030EDBCF07F0040EDBCF08F00850056E1C
:1013A0000750046E0650036EE4CF08F0E4CF07F058
:1013B000E4CF06F00250E56E0150E56E0050E56E98
:1013C000070EDBCFE5FF060EDBCFE5FF050EDBCF1B
:1013D000E5FF0550E56E0450E56E0350E56E06EC42
:1013E00000F0006EF3CF01F0090EE12606C0E5FF24
:1013F00007C0E5FF08C0E5FF020EDBCF06F0030ED5
:10140000DBCF07F0040EDBCF08F000500624026E9D
:1014100001500720036EE86A0820E4CF08F0E4CF0B
:1014200007F0E4CF06F0E56A02C0E9FF03C0F3FF6E
:101430003FEC0DF001C0F3FF0050E4CF05F0E4CF26
:1014400004F0E4CF03F0E4CF02F0E4CF01F0E4CF06
:1014500000F0E4CFD9FF1200D9CFE5FFE1CFD9FFEB
:1014600000C0E5FF01C0E5FF02C0E5FF03C0E5FFE6
:1014700004C0E5FF05C0E5FF06C0E5FF07C0E5FFC6
:10148000020EDBCF00F0030EDBCF01F0040EDBCF4A
:1014900002F0050EDBCF03F002C006F00650046E2A
:1014A000800A33E100C0E9FF01C0F3FF0250CBEC3A
:1014B0000CF0056EF3CF06F0F4CF07F003C0E5FFA4
:1014C00005C0E9FF06C0F3FF07503FEC0DF000C078
:1014D000E9FF01C0F3FF0250CBEC0CF0056EF3CF37
:1014E00006F0F4CF07F0052A02E3064A072A05C0F2
:1014F000E5FF06C0F4FF07C0F6FF00C0E9FF01C02A
:10150000F3FF025024EC0DF01DD004AA1BD0047A86
:10151000045004E1035051EC0DF014D00450010AC2
:1015200004E1035002EC00F00DD004500F0A04E176
:1015300003505BEC0DF006D004500E0A03E103509B
:1015400058EC0DF0E4CF07F0E4CF06F0E4CF05F05F
:10155000E4CF04F0E4CF03F0E4CF02F0E4CF01F0F5
:10156000E4CF00F0E4CFD9FF1200D9CFE5FFE1CFFF
:10157000D9FF00C0E5FF01C0E5FF02C0E5FF03C0E1
:10158000E5FF04C0E5FF05C0E5FF06C0E5FF07C0B5
:10159000E5FF08C0E5FF09C0E5FF020EDBCF00F064
:1015A000030EDBCF01F0040EDBCF02F0050EDBCF24
:1015B00003F0060EDBCF04F00150066E0050056EFE
:1015C000800E076E03C008F004C009F0FF0E03266A
:1015D0000422085009100EE002C0E5FF05C0E9FF33
:1015E00006C0F3FF07503FEC0DF0052AEBE3064A77
:1015F000072AE8D7800E026E02C0F4FF01C0F3FF95
:101600000050E4CF09F0E4CF08F0E4CF07F0E4CFD6
:1016100006F0E4CF05F0E4CF04F0E4CF03F0E4CF2C
:1016200002F0E4CF01F0E4CF00F0E4CFD9FF1200E4
:10163000D9CFE5FFE1CFD9FF00C0E5FF01C0E5FF4D
:1016400002C0E5FF03C0E5FF04C0E5FF05C0E5FFFC
:1016500006C0E5FF020EDBCF00F0030EDBCF01F08A
:10166000040EDBCF02F0050EDBCF03F0060EDBCF5E
:1016700004F0070EDBCF05F0080EDBCF06F0D880B4
:1016800003AED89015E306500A0A12E104C0E9FF40
:1016900005C0EAFF2D0EEF6E044A052A031E021E46
:1016A000011E006C05E1012A03E1022AD8B4032AD5
:1016B0000650E56E0550E56E0450E56E0350E56E8C
:1016C0000250E56E0150E56E0050E56E52EC06F0FA
:1016D000070EE126E4CF06F0E4CF05F0E4CF04F0F6
:1016E000E4CF03F0E4CF02F0E4CF01F0E4CF00F068
:1016F000E4CFD9FF1200D9CFE5FFE1CFD9FF00C079
:10170000E5FF01C0E5FF02C0E5FF03C0E5FF04C03F
:10171000E5FF05C0E5FF06C0E5FF07C0E5FF010ED8
:10172000E56E000EE56E5EEC0CF0E652E652480EF9
:10173000006E0D0E016E026A036A00C004F001C063
:1017400005F002C006F003C007F0FF0E00260122DC
:10175000022203220450051006100710EEE1210EAC
:10176000006E0F0E016E000EE56E200EE56E200E6F
:10177000E56E0150E56E0050E56EB5EC0AF0050E21
:10178000E126E4CF07F0E4CF06F0E4CF05F0E4CFA4
:1017900004F0E4CF03F0E4CF02F0E4CF01F0E4CFB3
:1017A00000F0E4CFD9FF1200940EF66E1A0EF76E19
:1017B000000EF86E0900F550056E0900F550066E32
:1017C000055002E106503BE00900F550006E0900AB
:1017D000F550016E0900F550026E09000900F55040
:1017E000E96E0900F550EA6E090009000900F5509C
:1017F000036E0900F550046E09000900F6CF07F0EA
:10180000F7CF08F0F8CF09F000C0F6FF01C0F7FFEE
:1018100002C0F8FF035002E1045007E00900F55050
:10182000EE6E0306F8E20406F9D707C0F6FF08C01B
:10183000F7FF09C0F8FF0506C4E20606C5D7120087
:10184000D9CFE5FFE1CFD9FF00C0E5FF01C0E5FF3B
:1018500002C0E5FF03C0E5FF04C0E5FF05C0E5FFEA
:10186000020EDBCF00F0030EDBCF01F0040EDBCF66
:1018700002F0036A046A00C0E9FF01C0F3FF0250EE
:1018800013EC0DF0056E002A02E3014A022A05500E
:1018900003E0034A042AEFD704C0F3FF0350E4CF68
:1018A00005F0E4CF04F0E4CF03F0E4CF02F0E4CF9E
:1018B00001F0E4CF00F0E4CFD9FF1200D9CFE5FF6B
:1018C000E1CFD9FF00C0E5FF01C0E5FF020EDBCF8D
:1018D00000F0030EDBCF01F0966A999499929092F2
:1018E0000050010BE844E844F46E9050FB0BF410F8
:1018F000906E01C08DFF000000009080000000008D
:1019000000000000000000000000000000009090B7
:10191000E4CF01F0E4CF00F0E4CFD9FF1200E8AE4D
:101920000AD0F3CFEAFFEE50EECFF3FFEECFF4FF95
:10193000EECFE9FF1200E8BC5CEF0DF0E9CFF6FF57
:10194000F3CFF7FFF86E0900F5500900F5CFF3FF6C
:101950000900F5CFF4FF0900F5CFE9FF1200F28E80
:10196000F28C9A909190D59ECD90D76AD66AD58CFC
:10197000D59AD586F28ACD8ECF6ACE6ACD98CD9A89
:10198000CD86CD84CD829D8035EC05F0989A868AEF
:10199000CD80FFD71200E8AE08D0F3CFEAFFEE50BB
:1019A000EECFF3FFEECFF4FF1200E8BC5CEF0DF0DA
:1019B000E9CFF6FFF3CFF7FFF86E0900F550090005
:1019C000F5CFF3FF0900F5CFF4FF1200D9CFE5FF03
:1019D000E1CFD9FF00C0E5FF020EDBCF00F0610EC2
:1019E000005C05E37B0E005C02E2010E01D0E86AB8
:1019F000E4CF00F0E4CFD9FF1200E8AE06D0F3CF79
:101A0000EAFFEE50EECFF3FF1200E8BC5CEF0DF002
:101A1000E9CFF6FFF3CFF7FFF86E0900F5500900A4
:101A2000F5CFF3FF1200E8AE04D0F3CFEAFFEE509B
:101A30001200E8BC5CEF0DF0E9CFF6FFF3CFF7FF43
:101A4000F86E0900F5501200E8AE09D0F3CFEAFFB6
:101A5000E4CFEEFFF4CFEEFFF6CFEEFF1200E8BCCE
:101A60005CEF0DF0120017EEFFF027EEFFF0F86AC2
:101A7000A68EA69CD4EC0BF0AFEC0CF0FFD7E8AE32
:101A800005D0F3CFEAFFE4CFEEFF1200E8BC5CEF35
:101A90000DF012000100AA1A00004F0F000005000F
:101AA0000000ACA2FED7AD6E1200000000000000E6
:0A1AB000E8CF7FFF120012001200C1
:00000001FF
